:100000000C9453000C947B000C947B000C947B00AC
:100010000C947B000C947B000C947B000C947B0074
:100020000C947B000C947B000C947B000C947B0064
:100030000C947B000C947B000C947B000C947B0054
:100040000C9458020C947B000C9426020C94000231
:100050000C947B000C947B000C947B000C947B0034
:100060000C947B000C947B0000000000250028000D
:100070002B0000000000240027002A0004040404D0
:100080000404040402020202020203030303030342
:10009000010204081020408001020408102001021F
:1000A00004081020510411241FBECFEFD8E0DEBF9A
:1000B000CDBF11E0A0E0B1E0E8ECFDE002C00590AA
:1000C0000D92A034B107D9F721E0A0E4B1E001C05E
:1000D0001D92AA3EB207E1F710E0C3E5D0E004C0EC
:1000E0002197FE010E94DC06C235D107C9F70E94A4
:1000F000A2020C94E2060C940000AF92BF92CF9241
:10010000DF92EF92FF920F931F93CF93DF936C01D7
:100110007B018B01040F151FEB015E01AE18BF08B8
:10012000C017D10759F06991D601ED91FC9101906A
:10013000F081E02DC6010995892B79F7C501DF9182
:10014000CF911F910F91FF90EF90DF90CF90BF90D4
:10015000AF900895FC01538D448D252F30E0842FFE
:1001600090E0821B930B541710F0CF9608950197DF
:100170000895FC01918D828D981761F0A28DAE0FCC
:10018000BF2FB11D5D968C91928D9F5F9F73928F53
:1001900090E008958FEF9FEF0895FC01918D828D7F
:1001A000981731F0828DE80FF11D858D90E008954C
:1001B0008FEF9FEF0895FC01918D228D892F90E0A4
:1001C000805C9F4F821B91098F73992708958DE45E
:1001D00091E00E94DB0021E0892B09F420E0822FCE
:1001E000089580E090E0892B29F00E94E7008111BA
:1001F0000C9400000895FC01A48DA80FB92FB11D27
:10020000A35ABF4F2C91848D90E001968F7399274C
:10021000848FA689B7892C93A089B1898C9183702A
:1002200080648C93938D848D981306C00288F38923
:10023000E02D80818F7D80830895EF92FF920F9350
:100240001F93CF93DF93EC0181E0888F9B8D8C8D82
:1002500098131AC0E889F989808185FF15C09FB776
:10026000F894EE89FF896083E889F9898081837039
:10027000806480839FBF81E090E0DF91CF911F91E8
:100280000F91FF90EF900895F62E0B8D10E00F5F09
:100290001F4F0F731127E02E8C8D8E110CC00FB6DF
:1002A00007FCFACFE889F989808185FFF5CFCE0177
:1002B0000E94FB00F1CFEB8DEC0FFD2FF11DE35AF7
:1002C000FF4FF0829FB7F8940B8FEA89FB898081FA
:1002D0008062CFCFCF93DF93EC01888D8823B9F074
:1002E000AA89BB89E889F9898C9185FD03C0808141
:1002F00086FD0DC00FB607FCF7CF8C9185FFF2CFBE
:10030000808185FFEDCFCE010E94FB00E9CFDF9118
:10031000CF9108953FB7F89480914501909146019F
:10032000A0914701B091480126B5A89B05C02F3F79
:1003300019F00196A11DB11D3FBFBA2FA92F982F0B
:100340008827BC01CD01620F711D811D911D42E006
:10035000660F771F881F991F4A95D1F70895FC01F2
:1003600001900020E9F73197AF01481B590BBC0100
:100370008DE491E00C947D008F929F92AF92BF929A
:100380000F931F93CF93DF93CDB7DEB7A1970FB62F
:10039000F894DEBF0FBECDBF19A2423008F44AE088
:1003A0008E010F5D1F4F842E912CB12CA12CA50125
:1003B00094010E94BA06E62FB901CA01EA30F4F4AA
:1003C000E05DD801EE938D01232B242B252B79F7AB
:1003D00090E080E0109719F0CD010E94AF01A19646
:1003E0000FB6F894DEBF0FBECDBFDF91CF911F9146
:1003F0000F91BF90AF909F908F900895E95CE1CFEF
:100400001F920F920FB60F9211242F933F934F9389
:100410005F936F937F938F939F93AF93BF93EF936C
:10042000FF938DE491E00E94FB00FF91EF91BF915B
:10043000AF919F918F917F916F915F914F913F917C
:100440002F910F900FBE0F901F9018951F920F9233
:100450000FB60F9211242F938F939F93EF93FF93D7
:10046000E0915D01F0915E018081E0916301F09186
:10047000640182FD1BC09081809166018F5F8F7344
:1004800020916701821741F0E0916601F0E0E35BA3
:10049000FE4F958F80936601FF91EF919F918F9111
:1004A0002F910F900FBE0F901F9018958081F4CF61
:1004B0001F920F920FB60F9211242F933F938F9399
:1004C0009F93AF93BF938091410190914201A0917E
:1004D0004301B09144013091400123E0230F2D37B7
:1004E00058F50196A11DB11D209340018093410153
:1004F00090934201A0934301B09344018091450140
:1005000090914601A0914701B09148010196A11D2B
:10051000B11D8093450190934601A0934701B0938C
:100520004801BF91AF919F918F913F912F910F9073
:100530000FBE0F901F90189526E8230F0296A11D5D
:10054000B11DD2CF789484B5826084BD84B58160BA
:1005500084BD85B5826085BD85B5816085BD80918E
:100560006E00816080936E00109281008091810006
:1005700082608093810080918100816080938100FE
:10058000809180008160809380008091B1008460C0
:100590008093B1008091B00081608093B000809121
:1005A0007A00846080937A0080917A0082608093E0
:1005B0007A0080917A00816080937A0080917A003D
:1005C000806880937A001092C100EEE9F0E02491F7
:1005D000EAE8F0E084918823C1F090E0880F991F49
:1005E000FC01EE58FF4FC591D491FC01E859FF4F33
:1005F000A591B4919FB7F8948881E22FE0958E235E
:1006000088838C91E823EC939FBFE0915D01F0918A
:100610005E0182E08083E0915901F0915A011082DD
:10062000E0915B01F0915C018FEC80831092650199
:10063000E0916101F091620186E08083E0915F01C9
:10064000F0916001808180618083E0915F01F09191
:100650006001808188608083E0915F01F09160019A
:10066000808180688083E0915F01F09160018081EA
:100670008F7D808310E4C0E0D0E010937C008091F7
:100680007A00806480937A0080917A0086FDFCCFA6
:100690008091780060917900762F682F072E000CEA
:1006A000880B990B0E94930520E030E040E850E46D
:1006B0000E94480620E030EC4FE754E40E94F0042A
:1006C00020E030E040E050E40E947E0490586093C7
:1006D000490170934A0180934B0190934C0182E150
:1006E00091E00E94AF01C0904901D0904A01E09092
:1006F0004B01F0904C01A7019601C701B6010E9481
:10070000B5068823E1F187E291E00E94AF0183E31F
:1007100091E00E94AF018CE391E00E94AF010E9442
:100720008A014B015C0188EEC82E83E0D82EE12CB3
:10073000F12C0E948A01681979098A099B09683E8F
:10074000734081059105A8F321E0C21AD108E108A0
:10075000F10888EE880E83E0981EA11CB11CC1141C
:10076000D104E104F10429F7209709F486CF0E940F
:10077000E700882309F481CF0E9400007ECF460164
:100780005701E894B7F82FEF3FEF4FE75FE7C50158
:10079000B4010E94B50681110DC02FEF3FEF4FE766
:1007A0005FE7C501B4010E94EB0418161CF48BE24C
:1007B00091E0ABCF2FEF3FEF4FE75FE4C701B6010A
:1007C0000E94430618161CF48FE291E09ECF2FEF93
:1007D0003FEF4FE75FECC701B6010E94EB0487FDD6
:1007E000F3CF20E030E0A901C701B6010E94EB047D
:1007F00087FF09C06DE28DE491E00E941D01F7FAC8
:10080000F094F7F8F0942AE037ED43EA5BE3C70190
:10081000B6010E947F044B015C010E9462056B01DE
:100820007C010E9491059B01AC01C501B4010E94AD
:100830007E044B015C014AE0C701B6010E94BC0185
:100840006EE28DE491E00E941D0120E030E040E284
:1008500051E4C501B4010E9448064B015C010E94AD
:1008600062056B01F12CE12C4AE0C701B6010E9440
:10087000BC01C701B6010E9491059B01AC01C501F5
:10088000B4010E947E0420E030E040E251E40E9486
:1008900048060E94620590E080E04AE00E94BC01A8
:1008A00036CFEDE4F1E01382128288EE93E0A0E00F
:1008B000B0E084839583A683B78384E091E091833D
:1008C000808385EC90E09587848784EC90E097871F
:1008D000868780EC90E0918B808B81EC90E0938B0D
:1008E000828B82EC90E0958B848B86EC90E0978BEA
:1008F000868B118E128E138E148E08955058BB273E
:10090000AA270E9496040C9409060E94FB0538F061
:100910000E94020620F039F49F3F19F426F40C944B
:10092000F8050EF4E095E7FB0C94F205E92F0E9420
:100930001A0658F3BA17620773078407950720F061
:1009400079F4A6F50C943C060EF4E0950B2EBA2F24
:10095000A02D0B01B90190010C01CA01A0011124C5
:10096000FF27591B99F0593F50F4503E68F11A1671
:10097000F040A22F232F342F4427585FF3CF469502
:1009800037952795A795F0405395C9F77EF41F1624
:10099000BA0B620B730B840BBAF09150A1F0FF0FEE
:1009A000BB1F661F771F881FC2F70EC0BA0F621FDA
:1009B000731F841F48F4879577956795B795F795CA
:1009C0009E3F08F0B0CF9395880F08F09927EE0F5F
:1009D0009795879508950E94CE0508F481E00895C3
:1009E0000E9404050C9409060E94020658F00E9419
:1009F000FB0540F029F45F3F29F00C94F2055111FA
:100A00000C943D060C94F8050E941A0668F399238D
:100A1000B1F3552391F3951B550BBB27AA276217FA
:100A20007307840738F09F5F5F4F220F331F441F07
:100A3000AA1FA9F335D00E2E3AF0E0E832D091503B
:100A40005040E695001CCAF72BD0FE2F29D0660F28
:100A5000771F881FBB1F261737074807AB07B0E86B
:100A600009F0BB0B802DBF01FF2793585F4F3AF071
:100A70009E3F510578F00C94F2050C943D065F3FC3
:100A8000E4F3983ED4F3869577956795B795F795F7
:100A90009F5FC9F7880F911D9695879597F90895DF
:100AA000E1E0660F771F881FBB1F6217730784077B
:100AB000BA0720F0621B730B840BBA0BEE1F88F78A
:100AC000E09508950E94220688F09F5798F0B92F6C
:100AD0009927B751B0F0E1F0660F771F881F991F73
:100AE0001AF0BA95C9F714C0B13091F00E943C06D3
:100AF000B1E008950C943C06672F782F8827B85FE3
:100B000039F0B93FCCF3869577956795B395D9F7CA
:100B10003EF490958095709561957F4F8F4F9F4FD4
:100B20000895E89409C097FB3EF4909580957095E0
:100B300061957F4F8F4F9F4F9923A9F0F92F96E929
:100B4000BB279395F695879577956795B795F1119E
:100B5000F8CFFAF4BB0F11F460FF1BC06F5F7F4F3B
:100B60008F4F9F4F16C0882311F096E911C077234D
:100B700021F09EE8872F762F05C0662371F096E856
:100B8000862F70E060E02AF09A95660F771F881F25
:100B9000DAF7880F9695879597F90895990F0008C9
:100BA000550FAA0BE0E8FEEF16161706E807F9073F
:100BB000C0F012161306E407F50798F0621B730BDA
:100BC000840B950B39F40A2661F0232B242B252B5B
:100BD00021F408950A2609F4A140A6958FEF811DFE
:100BE000811D089597F99F6780E870E060E008959F
:100BF0009FEF80EC089500240A9416161706180635
:100C00000906089500240A94121613061406050610
:100C10000895092E0394000C11F4882352F0BB0FA1
:100C200040F4BF2B11F460FF04C06F5F7F4F8F4F04
:100C30009F4F089557FD9058440F551F59F05F3F3F
:100C400071F04795880F97FB991F61F09F3F79F0EE
:100C500087950895121613061406551FF2CF469570
:100C6000F1DF08C0161617061806991FF1CF8695F2
:100C70007105610508940895E894BB2766277727D6
:100C8000CB0197F908950E94CE0508F48FEF0895DF
:100C90000E945B060C9409060E94FB0538F00E9436
:100CA000020620F0952311F00C94F2050C94F8053F
:100CB00011240C943D060E941A0670F3959FC1F30F
:100CC000950F50E0551F629FF001729FBB27F00DFA
:100CD000B11D639FAA27F00DB11DAA1F649F66274F
:100CE000B00DA11D661F829F2227B00DA11D621F9E
:100CF000739FB00DA11D621F839FA00D611D221F58
:100D0000749F3327A00D611D231F849F600D211D3B
:100D1000822F762F6A2F11249F5750409AF0F1F0BE
:100D200088234AF0EE0FFF1FBB1F661F771F881F27
:100D300091505040A9F79E3F510580F00C94F20568
:100D40000C943D065F3FE4F3983ED4F38695779587
:100D50006795B795F795E7959F5FC1F7FE2B880FCD
:100D6000911D9695879597F908950E94CE05880B59
:100D7000990B0895A1E21A2EAA1BBB1BFD010DC001
:100D8000AA1FBB1FEE1FFF1FA217B307E407F5073B
:100D900020F0A21BB30BE40BF50B661F771F881F17
:100DA000991F1A9469F760957095809590959B01AD
:100DB000AC01BD01CF010895EE0FFF1F0590F49126
:080DC000E02D0994F894FFCF27
:100DC800000000001D017D00AA006A01DB00B900D7
:100DD800CD004163656C65726163696F6E20616304
:100DE8007475616C3A20006E616E00696E66006F02
:100DF800766600467565727A612047000D0A000024
:00000001FF
